:020000040800F2
:10000000A00600209537000865360008673600080E
:1000100000000000000000000000000000000000E0
:100020000000000000000000000000006936000829
:1000300000000000000000006B3600086D3600086C
:10004000EF1300089B1A0008D72700085F2A000852
:10005000032D000881360008572D00085F3700087F
:100060006B370008B1370008B3370008B537000810
:10007000B7370008B9370008BB370008BD3700089C
:10008000BF370008C1370008C3370008C53700086C
:10009000C7370008C9370008CB370008CD3700083C
:1000A000CF370008D1370008D3370008D53700080C
:1000B000D7370008D9370008DB3700087936000841
:1000C00080B528481421026952681170026952688B
:1000D0000F235370026952689170032102695268BC
:1000E000D1700269526811710269526851710269D6
:1000F000526891710169496807220A720169496869
:100100000A224A72006940680121C171002000F092
:100110007FF901BD38B5134C00F09AFB002804D0DC
:1001200020690068007813281BD1206901680978CC
:100130000D00E2681278202A01D0222A04D1C900D9
:10014000C069401840688047206900680178A9426A
:10015000416803D140229143416031BD40220A43AE
:10016000426031BD4C020020FCB5C3480069806884
:100170000190002300210022684601700020BE4C3F
:100180002469246865688026B5436560BA4D2D6989
:10019000AD89032D2BDB002506E0B24200DA3200E8
:1001A0003E460C3601966D1CEEB2B34F3F69BF89D7
:1001B000BE4215D20826019FBE5F002E00D5002644
:1001C000B34207DA0A0019003300684600786E4629
:1001D0003570E5E7B142E0DA0A0031002800DFE7D8
:1001E000A54D2D696D686D786D086D1EA94200DA08
:1001F00002E19B1A9BB20006C00D6D462D783E466B
:1002000075436D009C4E3669766975192E5E9A4865
:100210000069458B98480069008B584380B2891A61
:1002200089B2591800F0AAFB80B2012E02DB7100DE
:10023000081802E071424900081A00B28E49C968E4
:100240000978202901D021290ED1012802DA802144
:1002500049004018401B00B2002801D5002004E0EE
:10026000FF2802DDFF2000E0C0B26678C1B2FC22A8
:10027000920163681D04ED0F61D0A84BC5B2AE4278
:1002800025D28D1BFF2D22DA6768A54D3D407A4FA0
:100290003F697F687F7AF619B6B2B0422ADB66689A
:1002A0001640FF27FF43F61916402E436660B5043B
:1002B000AD0E2AD1704D2D696D68ED793700984EDD
:1002C0003E402D021540354365601D4065606778EE
:1002D0000500FF35BD4225DA6668914D3540802620
:1002E00076008619B446644E36697668767ABE1909
:1002F000B6B2B44560DB66681640FF27FF43F619C7
:1003000016402E436660B504AD0E75D15A4D2D6969
:100310006D68EF79824D35403E0232402A4362607B
:1003200013406360607054480069082243681B7A78
:10033000D21AD140006882788A425FD15CE0802383
:100340001B02C5B2B54224D2751AFF2D21DA6768A7
:10035000734D3D40484F3F697F687F7AC719BE4261
:100360002ADB66681640FF27FF43F61916402E4326
:100370006660B504AD0E3FD13F4D2D696D68ED79D6
:100380003700674E3E402D021540354365601D43E2
:10039000656066783500FF35ADB28542C2DA6768C0
:1003A0005F4D3D40DF09F619B6B2334F3F697F68B4
:1003B0007F7AC719BE4208DA2F4800694068C079C1
:1003C000000202402A43626016E066681640FF277A
:1003D000FF43F61916402E436660B504AD0E0BD1EF
:1003E000254D2D696D68EF794D4D35403E02324007
:1003F0002A436260134394E70220F6BD81701E48D1
:1004000000690068416880220A4342600020F6BD0E
:1004100038B50400184D2869006800210170416852
:1004200040220A434260032000F0FDF99B48818886
:10043000042902D0102902D003E0022104E00421A3
:1004400002E0082181800321A64A118080882018BB
:1004500029690968C87000F065FA31BD80B5904817
:100460000069006813210170416840220A4342601C
:10047000002000F0D8F901BD4C020020002088497E
:10048000CA681278202A01D0222A05D10869016899
:100490000978C900C069405C704738B5804C00F0ED
:1004A000ECF9002807D0256901216868407800F040
:1004B00021FA002803D1206900680A210BE028688E
:1004C000C178002901D0491EC17020690068C17837
:1004D000002901D10221017031BD38B5704C00F006
:1004E000CCF9002807D0256901216868407800F020
:1004F00001FA002803D1206900680C210BE028686C
:10050000C178002901D0491EC17020690068C178F6
:10051000002901D10221017031BD0000FF7FFFFFE2
:10052000FFC0FFFF38B55E4C00F0A7F90028256931
:100530000CD1686880792968C87020690068C17822
:10054000002901D10D212AE00F2128E0012168684E
:10055000007800F0BBF900280CD1686800792968A0
:10056000C87020690068C178002901D10A2116E00D
:100570000B2114E001216868807800F092F90028CE
:100580000ED16868C0782968C87020690068C17891
:10059000002903D10020FFF73BFF31BD012101708D
:1005A00031BD38B53E4C00F068F9002815D02569FA
:1005B00001216868807800F074F900280DD128685E
:1005C000C178002901D0491EC17020690068C07837
:1005D000002806D1FFF71CFF31BD20690068022109
:1005E000017031BDF8B500F048F900282C480069C9
:1005F0000BD1416889790068C17029480069006899
:10060000C178002926D00E2146E084680027002505
:1006100002E0A6800C346D1C21480069E9B2828991
:10062000914219D266890168C9781C4A9288D2B26F
:10063000914207D13100200000F0E8FA0028E8D10B
:10064000A780F1BDA1888919A18089B2B142E1D208
:10065000A78000680D211FE00068C178002901D043
:10066000491EC1700E4800690168C978002914D17B
:100670008468002508E0A0881A490988C840A0803D
:10068000A77127810C346D1C05480069E9B2828985
:100690009142F0D3006802210170F1BDE00000201A
:1006A0004C02002038B59E4C00F0E7F8002814D02A
:1006B000256901216868007800F008F900280CD14C
:1006C0002868C178002901D0491EC17020690068DE
:1006D000C178002905D10A2102E0206900680221C1
:1006E000017031BD9C02002038B58D4D00F0C5F879
:1006F00000282C690CD1606880792168C87028694D
:100700000068C178002901D10D2115E0112113E005
:1007100001216068407800F0EDF8002800D137E052
:10072000606840792168C87028690068C17800292C
:1007300001D1022100E00421017031BD38B5784DAE
:1007400000F09BF800282C690CD160688079216842
:10075000C87028690068C178002901D10D2115E011
:10076000122113E001216068407800F0C3F80028EE
:1007700000D10DE0606840792168C8702869006880
:10078000C178002901D1022100E00521017031BDAD
:10079000E8680078202801D0222801D1206A01E0F1
:1007A0006948C0688068804731BD10B582B05C4C34
:1007B00000F063F800280DD120690068C178002995
:1007C00001D0491EC17020690068C178002929D173
:1007D0000D2122E0FFF752FE694608706846007856
:1007E0005F210140684601700078012806D0022888
:1007F00008D004280AD008280CD010E0206900682E
:1008000002210AE020690068062106E020690068EC
:100810000A2102E0206900680C21017013BD00204C
:10082000FFF7F6FD13BD70B53D4909698A680023DD
:1008300009E014681825AC43C50018262E4026434D
:1008400016600C325B1CDCB28D89AC42F1D370BDFA
:1008500070B5334801698B680220002408E01D68E8
:10086000EE0703D5012085431D6000200C33641C76
:10087000E5B28E89B542F2D370BD10B52848006943
:1008800081680022848901E00C31521CD3B2A3425A
:1008900005D20B685B089B07F6D5002010BD02202F
:1008A00010BD30B51E4909698A68002301E00C3289
:1008B0005B1CDCB28D89AC4206D244420825555FF0
:1008C000AC42F4DB002030BD022030BD30B514490D
:1008D00009698A68002301E00C325B1CDCB28D8957
:1008E000AC4205D20824145F8442F5DB002030BD01
:1008F000022030BD30B50A4909698A68002301E049
:100900000C325B1CDCB28D89AC4205D20825555FE8
:10091000A842F5DA002030BD022030BD0000000002
:100920004C02002030B50948016989680022002383
:1009300003E08A808A710C315B1CDCB20569AD89E9
:10094000AC42F6D330BD0000E00000204C02002095
:10095000F446002804D4494200F013F840426047AE
:100960004042002905D45FD000F00BF840424942D4
:100970006047494200F005F84942604703460B438F
:10098000E6D40022030A8B420BD203098B4219D210
:1009900043088B422ED2411A00D2014652411046E2
:1009A0007047FF2209023FD012068B4205D3121274
:1009B00009028B4201D31212090203098B4219D397
:1009C00000E0090AC3098B4201D3CB01C01A52418E
:1009D00083098B4201D38B01C01A524143098B42D8
:1009E00001D34B01C01A524103098B4201D30B01C1
:1009F000C01A5241C3088B4201D3CB00C01A5241E6
:100A000083088B4201D38B00C01A524143088B42AA
:100A100001D34B00C01A5241884200D3401A5241C0
:100A2000CFD201461046704708B500F0F7F808BD70
:100A3000F0B583B0634F3868E021090301433960A2
:100A400002256C4625710120A07100206071E071C3
:100A5000882000909026F6056946300000F0F4F8F2
:100A60000095594D6946280000F0EEF80020A0716D
:100A7000442000906946300000F0E6F80120009024
:100A80006946280000F0E0F8306A504901433162BD
:100A9000706A7062286A332101432962686A686259
:100AA0003868802149040143396049480168494A4E
:100AB0000A40026001699122D2000A430261F7BD37
:100AC00080B5FFF7B5FF802149043E4802680A431C
:100AD000026041480122026002680B011343036077
:100AE0000268114301600168C02292010A4302605A
:100AF0000168A0220A43026001681022914301604C
:100B0000364800683649FFF73CFFFA218900484320
:100B10003021FFF736FF33490860002002BDF0B5F1
:100B2000314C18214143626851180A684B682072A1
:100B30002E480C6904604C698460002415E01D880F
:100B40000C266E438D68AD59ED06AD0F032D09D00F
:100B500086689768BE438660002D03D10568566895
:100B6000B54305600C329B1C641C8D89AC42E6D3F6
:100B70000020F0BD10B5184CA06803210143A1600E
:100B80001848006800F044F82068102101432160F3
:100B9000206802210143216010BD012101200E4A7D
:100BA000D368194008D010681021884310600220D3
:100BB000D168014000D10020704780000C490858DE
:100BC00080B2704714100240000400480033003324
:100BD0001040024033F9FFFF00400240CC000020EB
:100BE00040420F00900200204C02002028400240AA
:100BF00034400240401A00B27047401A80B2704739
:100C00000020704701207047002070470120704786
:100C100000B500E0401E0028FCD100BD704738B48C
:100C2000012100220368001D002B0BD00468001D69
:100C30000C4202D04D466D1E64192260241D1B1FFC
:100C4000F0D0FAE732BC7047F0B5002301229A4099
:100C50000C681440944228D15C000326A640F5435A
:100C60000E79012E01D0022E0FD186682E408660AB
:100C700086684F79A7403743876086889643868089
:100C800082888E799E401643868002682A400260E0
:100C900002680E79A64016430660C2681540C5601A
:100CA000C268CD79A5401543C5605B1C102BCDD320
:100CB000F0BD02000020128AFFE70A4200D00120A6
:100CC0007047816170470185704710B5CB089B0064
:100CD000C0184907C90E036A0F248C40A34303625E
:100CE000036A8A401A43026210BD7047704770471A
:100CF00070477047401E80214904884201D301207B
:100D000070475E4948605E4802681202120AC023BA
:100D10001B06134303600020886007200860002042
:100D2000704710B5FA24A400564800682100FFF768
:100D300028FEFFF7DFFF002800D0FEE7012100F0CA
:100D4000F3FA002000F0B8FA012000F0B5FA022012
:100D500000F0B2FA032000F0AFFA00F04CF94A4B71
:100D60004A4A4B494B4800F043FB00F05FFC20002F
:100D700000F080FA002000F015FB01280FD10020C0
:100D800000F010FB0028FAD1CD480021016000F0EE
:100D900036F800F0E4F900F07FF800F0FBF900F01D
:100DA00001F8FCE780B50EE0002000F0B1FA032066
:100DB00000F0AEFA022000F0ABFA012000F0A8FA31
:100DC000642000F057FA002000F0ECFA0128EBD183
:100DD000002000F0E7FA0028FAD100F091FA012093
:100DE00000F08EFA022000F08BFA032000F088FA5F
:100DF00000F077F800F068F900F0CCF901BD10B50B
:100E0000AF4C0BE0002000F07BFA012000F078FAF4
:100E1000022000F075FA032000F072FA2068012821
:100E20001BD0002000F074FA322000F023FA0220D8
:100E300000F06EFA322000F01DFA20680128E1D09F
:100E4000032000F065FA322000F014FA012000F0CF
:100E50005FFA322000F00EFAE0E7002000F0A2FA7C
:100E60000028FAD100F04CFA012000F049FA0220E3
:100E700000F046FA032000F043FA10BD10E000E055
:100E800020ED00E0CC000020A000002000000020A9
:100E9000680000201801002070B586B0684618214F
:100EA00000F028FC012000F0C5FC2A2000F04AFCDC
:100EB000002000F01DFA002000F074FA0128FAD199
:100EC000002000F06FFA0028FAD100F019FA012092
:100ED00000F016FA022000F013FA032000F010FAD6
:100EE00005E070B586B06846182100F003FC2724A1
:100EF000E44329E0009800F0B3FD00B229280EDB9E
:100F0000002000F0FDF9012000F0FAF9022000F0C5
:100F1000EFF9032000F0F4F9192000F0ABF9009884
:100F200000F09EFD00B2A0420EDA002000F0E8F9C9
:100F3000012000F0DDF9022000F0E2F9032000F0CA
:100F4000DFF9192000F096F9002000F02BFA0128B3
:100F50003FD0684600F068F8009800F081FD45B287
:100F6000012D01DA68420500019E300000F078FD95
:100F700040B2012801DA41420800C0B2EDB2A842F5
:100F8000B8D3300000F06CFD00B229280EDB002041
:100F900000F0AEF9012000F0B3F9022000F0B0F942
:100FA000032000F0ADF9192000F064F9019800F079
:100FB00057FD00B2A042C7DA002000F0A1F90120DD
:100FC00000F09EF9022000F09BF9032000F090F958
:100FD000B7E7002000F0E6F90028FAD100F090F918
:100FE000012000F08DF9022000F08AF9032000F0C2
:100FF00087F906B070BD10B584B001A80821017052
:101000000024447007218170C470802101714471F3
:101010002021817100F070FB6846048000F01EFC06
:10102000102000F033FC1FBDF0B585B0060001A80C
:101030000021002206C006C0002568460170002479
:101040000122232100F04FFC0622282101A800F0F4
:101050004AFC03AF01A86946097849060AD4610031
:10106000421853781B0212789A187A52641C032C87
:101070000ADAF4E76100421813781B0252789A18D2
:101080007A52641C032CF5DB68460078302101405D
:10109000102902D0202902D003E0804C02E0804CCD
:1010A00000E0804C6800385E00F0F8FC210000F0A1
:1010B0000EFDA90070506D1C032DF3DB05B0F0BDD3
:1010C0008C0200200020704738B5002000F010F995
:1010D000032000F015F9744C00252AE0201DFFF7CD
:1010E000A3FF2570E06800F0BBFC40B20521C943B6
:1010F000FFF744FC6070A06800F0B2FC40B206212B
:10110000FFF73CFCA070E570002000F001F903201F
:1011100000F0FEF86078002802D1A078002808D0FE
:101120000422210020001C3000F09AFD052000F070
:10113000A1F8002000F036F90128CFD1002000F0FE
:1011400031F90028FAD100F0DBF8012000F0D8F8DE
:10115000022000F0D5F8032000F0D2F831BD80B5B0
:1011600002E0022000F0C4F8002000F01BF9012882
:10117000F7D1002000F016F90028FAD100F0C0F8ED
:10118000012000F0BDF8022000F0BAF8032000F0C2
:10119000B7F801BD80B505E000F050FA002801D194
:1011A00000F021F8002000F0FDF80128F4D1002023
:1011B00000F0F8F80028FAD100F0A2F8012000F0C1
:1011C0009FF8022000F09CF8032000F099F83748BF
:1011D0000068FA218900FFF7D4FBFFF78BFD002898
:1011E00000D0FEE701BD10B5002000F089F8012015
:1011F00000F086F8022000F083F8032000F080F869
:101200002B48046820780A2801D0042817D1A07838
:10121000002802D0032000F06BF8A078302802DB11
:10122000022000F065F8A078502802DB002000F0D2
:101230005FF8A078702802DB012000F059F810BD9B
:10124000704780B5FFF70AF9002000F051F801203F
:1012500000F056F8022000F053F8032000F050F898
:10126000002000F055F8032000F052F8642000F050
:1012700001F8F5E781B001B40E48009901600168FA
:101280000029FCD102B070470A480168002902D049
:101290000168491E016070470000000054926442DA
:1012A0005C8F6441EC91E442FC000020CC00002003
:1012B0009C3500088802002030B583B00500AC00E2
:1012C000012100BF40A0005900F02BFD680000BFC5
:1012D0003BA1085A009001206946087100228A71DA
:1012E000C8710320487134480059FFF7ADFC37BD81
:1012F0008100314A5158400031A2105A886170472C
:1013000081002D4A515840002DA2105A088570477F
:101310008100294A51588A8A400000BF28A3185AE0
:101320005040888270470000F0B585B00F0004007F
:10133000A600012129A0805900F0F3FC0121012021
:1013400000F0F9FC650000BF23A0405B039003A8F8
:10135000002101710221C17103A918488059FFF7CA
:1013600073FC012F1CD100BF1FA0015D1DA0005DFB
:1013700000F030FD1AA0405B019001A8002101712E
:10138000082141710125857100F038FD684600BFD4
:1013900016A1095D017003214170857000F072FD96
:1013A00005B0F0BD80B541000BA2515A8000034A40
:1013B0001058FFF77EFC02BDD0000020F000002096
:1013C000400000010002800000000800000008004A
:1013D00000000800000008000100000000000200FA
:1013E0000100000000000000000000000500FEE712
:1013F000F2B5040017001D0000F06CFD2600C03699
:10140000376075600098B06000F0C8FD200000F003
:1014100021FE706800688047200000F08DFD2000EC
:1014200000F0D7FFF1BD1CB50400694601F072F968
:1014300068460078C006C00E03D002280BD005D342
:101440000EE06946200000F0DBFF10E06946200056
:1014500001F068F80BE06946200001F082F806E030
:101460006846017880200140200000F04CFF0020F9
:1014700016BD10B50400401C002921D12100703197
:101480000278032A26D1CB69CA689A420AD2981AEE
:10149000C861904200D2020092B20969200001F0B6
:1014A00086F917E0C021625811690A0004D040781B
:1014B000032801D120008847200001F080F909E0CD
:1014C000C022A2589269130004D04078032801D1A9
:1014D00020009047002010BDF8B5040000293FD13E
:1014E00025002035607802282DD1E869EE68864213
:1014F00007D2821BEA6192B22969200001F04FF9FC
:1015000039E02F6A38003100FFF73BFA00290BD190
:10151000B74209D3686A874206D20022200001F050
:101520003EF90020686226E0C0202058C16808000B
:1015300005D0601C4078032801D120008847200096
:1015400001F043F917E0042815D10C4D2968002952
:1015500011D0C9B2200000F026FF002028600AE068
:10156000C02020584269100005D0601C4078032834
:1015700001D1200090470020F2BD0000840200202D
:1015800010B5040040230022002100F07CFD8023E0
:1015900000228021200000F076FD0023402200215F
:1015A000200000F088FD002340228021200000F070
:1015B00082FD0120A0702069C0B2C434216849684E
:1015C0008847002010BD10B50400C42020580069D1
:1015D0008047A41C60782070002010BD80B5811C5D
:1015E0000A784A7004220A70C4300068C0688047D4
:1015F000002002BD80B5C0214158C9690A0000D051
:101600008847002002BD10B50400C034226812686B
:101610009047606880688047002010BD80B5020058
:10162000C032126852689047002002BD80B51D4844
:1016300001F0D2F81DA001F02FF901BD70B501260F
:10164000194C6068002806D12068C0B2FFF767FA1D
:10165000FFF790FA66600025FFF79FFA002809D18E
:10166000002200212068C0B201F022F92068401C4D
:10167000206065602068002812D025606560200029
:101680000C3001F0D3F821000831642001F0BDF9DD
:10169000002803D10C34200001F088FA002070BD2E
:1016A000012070BD580000204C000020BC34000810
:1016B000E03400082802002003000000440200007B
:1016C00007000000130030B414001500103902D3D5
:1016D00010393CC0FCD2490700D30CC000D504C06F
:1016E000890002D30280801C002900D5027030BC22
:1016F000704700000022E5E710B582B0040000202A
:101700006946088000F00FF96846407821786278D1
:101710000A43A1781143E2780A43024368464270C3
:101720000078217962790A43A1791143014368461F
:10173000017001222021401C00F0BAF8012223216F
:10174000684688E0F0B587B0070000246846047159
:10175000C2A10A68026080252D030121280000F043
:10176000E0FA0121280000F0DCFA0121012000F05C
:10177000E2FA0226039603A80471C471B34D03A9CB
:101780002800FFF761FA0420039003A92800FFF75F
:101790005BFA0121022000F01DFB059605A80471EB
:1017A0000C2141710124847100F028FB02A805215D
:1017B00001700F214170847000F064FB684600796D
:1017C0003843694608710122302101A800F070F801
:1017D000022F02D10122322112E0082F02D1012270
:1017E00034210DE0202F224609D03221684600F036
:1017F0005FF801223421684600F05AF801223621B0
:10180000684600F055F86C4601223321601C00F058
:101810004FF801223521601C00F04AF801223721DF
:10182000601C00F045F801223821A01C00F040F8AF
:1018300007B0F0BD10B582B0040001222221684635
:1018400000F051F868460078E101014368460170F4
:10185000FFE70122222100F02BF813BD10B582B062
:10186000040001222121684600F03DF86846007816
:10187000C0210140684601700846217862780A4319
:1018800002436846027001222121E4E710B582B0CC
:10189000040001222421684600F025F868460078FB
:1018A000EF2101400C436846047001222421D2E755
:1018B000F8B504000E001500022D02DB30004026B2
:1018C0000643624F01213800FFF7FDF9300000F0B8
:1018D00092F804E0207800F08EF86D1E641CADB222
:1018E000002DF7D11AE0F8B504001500022D01DB38
:1018F000C02600E080260E43544F01213800FFF738
:10190000E2F9300000F077F805E0002000F073F80D
:1019100020706D1E641CADB2002DF6D1012138007F
:10192000FFF7CFF9F1BDF0B587B00121880300F0D2
:101930000CFA0121880400F0F4F90121C80400F038
:10194000F0F902206C4620710025A571E071012795
:101950006771000300903E4E69463000FFF774F94E
:10196000F803009069463000FFF76EF9B803009065
:1019700069463000FFF768F900220D213000FFF7BB
:10198000A4F900220E213000FFF79FF900220F2159
:101990003000FFF79AF92F4E300001F047F902A806
:1019A0000580E021C9008180C5800581710D4181DC
:1019B00010218181C58107210182FD31418002A969
:1019C000300001F04EF9B10C300001F078F901213E
:1019D000300001F06AF900972771A5716771E57110
:1019E0001A4C69462000FFF72FF901212000FFF76C
:1019F00068F907B0F0BDF8B50700174C80267601EE
:101A00002660144D0221280001F074F9002805D148
:101A10002068411E21600028F4D10FE03900280021
:101A200001F050F926600121280001F063F9002837
:101A300008D12068411E21600028F4D1FFF742FB45
:101A4000C0B2F2BD280001F03FF9F2BD0008004825
:101A50000004004800380040F4000020030010009B
:101A60000122D2070118090E7F3910D449421F31D3
:101A70000FD4001805D2C0011043C84000D5D04390
:101A80007047C0011043C84005D440427047002051
:101A900070470042F3D510007047FEE79D21020019
:101AA00008D5F446524200F005F80122D20710434F
:101AB000604700000AD002D4491E9218FCD5C9051F
:101AC000100A1206524100D3012A4841704730B42F
:101AD00005004D400122D20715404B180418240E72
:101AE00028D01B0E2FD0FF2C34D0FF2B37D0E41A78
:101AF000000209021043114343084808D10D1B1A84
:101B000002D2641EDB181B18DB18834200D31B1A99
:101B10004941F9D37F3426DDFE2C08DAE405480874
:101B2000C907194391416041284330BC7047FF20E9
:101B3000C005F9E728001B0E03D0FF2BF5D14902A1
:101B4000F3D0D043F1E7FF2C01D14002F9D1FF20BF
:101B5000C005E9E74002F4D1FF2BF8D1F1E72800F6
:101B60004902E2D0EDE70B0200202442DCD15B12F7
:101B70009B1CD9D9D805D7E710B50400A8235B0072
:101B80000022812100F07FFA03230422812120001A
:101B900000F091FA032304220121200000F08BFAC7
:101BA000002010BD10B50400812100F000FB0121D0
:101BB000200000F0FCFA002010BD000070B50A0003
:101BC000002300242449157860262E401DD0202EA5
:101BD0003FD15378022B10D0032B07D00A2B08D00B
:101BE0000B2B0DD15088C0B2486032E00122091D94
:101BF00029E05088000A88602BE00122083122E0A9
:101C0000110000F09FFD022070BD5578062D04D014
:101C10000A2D17D00B2D19D01BE05188090A222953
:101C200006D1D4884B2C00DB4A2400BF1DA306E05C
:101C3000212904D1094BD4880A2C00DB0924220075
:101C4000190000E0012200F0A4FD02E05088C0B2BB
:101C50000860002070BD00006C020020921C00088B
:101C600080B58378032B04D113000A00812100F092
:101C700006FB002002BD00002220088000A0704763
:101C800009022200010100E0320904000001030101
:101C90000200092111010001224A00070581030405
:101CA000000A000005010902A1010901A1000509BE
:101CB000190129031500250195037501810295017C
:101CC0007505810105010930093109381581257F24
:101CD000750895038106C0093C05FF09011500251B
:101CE0000175019502B12275069501B101C0000090
:101CF000104308607047044908E02E490A688023B1
:101D00009A430A600A68F3E7341002400028086822
:101D100003D080225202024301E0274A02400A60B7
:101D20007047264A0029116802D0084310607047A6
:101D3000814311607047224A0029116802D008438C
:101D4000106070478143116070471E4A0029116876
:101D500002D00843106070478143116070471A4AEF
:101D60000029116802D00843106070478143116058
:101D70007047164A0029116802D008431060704766
:101D80008143116070474109114A002901D111684E
:101D900008E0012901D1116A04E0022901D1516A48
:101DA00000E0516BC006C00EC140C807C00F7047AD
:101DB0000000000030100240FFFFFEFF1410024040
:101DC000181002401C1002400C100240101002407B
:101DD0000010024010B50A0003239A43064B9A18DC
:101DE0008907090F13680F248C40A34313601368FD
:101DF00088401843106010BD0800014030B50168EC
:101E0000CC431E498279002A25D00A4613681C401B
:101E1000146053680468A343536003795B181C681B
:101E2000056825431D6093680468A3439360D368E5
:101E30000468A343D36043790468102B07D19168E9
:101E40000C439460D16800680843D06030BD5B18D3
:101E50001868044303E000794318186804401C60C4
:101E600030BD00BF01000020054A1268114000D0BB
:101E700001207047024908607047000000040140DB
:101E80001404014070B503781F2101228478002CCE
:101E900015D01C000325AC430B4D2C1925689B075E
:101EA000DB0EFF269E40B5434678B607360E9E40B1
:101EB0002E432660007801408A40044802E0194021
:101EC0008A400348026070BD00E400E000E100E0E9
:101ED00080E100E000B583B00121C805FFF735FFC0
:101EE0000120FFF708FF7120FFF74DFF0028FAD00F
:101EF0000020FFF702FF0121C806FFF726FF802020
:101F0000800500F019FF012000F006FF012000F01D
:101F1000F9FE01210020FFF707FA01200090694631
:101F200000220A7110224A7188716846FFF766FF25
:101F30000120FFF79FFF07BD80B568461F21017094
:101F4000012141708170FFF79DFF01BD12200880C3
:101F50003AA07047042008803DA0704710B50A00E1
:101F6000184C210024A004E010B50A00154C2100F3
:101F700026A000F0ECFB200010BD1A2008801248BB
:101F80007047000010B50A000E4C210024A0F0E7B5
:101F900010B50A000B4C210024A0EAE738B50B4825
:101FA00045680168806808180AD0074C0822A11CFF
:101FB00000F00EF8042212342100280000F008F886
:101FC00031BD0000E801002084000020ACF7FF1FB5
:101FD00070B50023002404E037362E7000016B70CA
:101FE000641C944206DA65004D19060F0A2EF3D2DE
:101FF0003036F2E770BD00004A6F79737469636B25
:1020000020696E204653204D6F64650053544D691E
:1020100063726F656C656374726F6E6963730000E1
:1020200048494420436F6E66696700004849442070
:10203000496E7465726661636500000012010002FA
:102040000000004083041057000201020301000059
:102050000403090480B5012181700022027101612D
:10206000012000F079FE002000F076FE002000F054
:1020700076FE002000F076FEBF200002B74908601F
:1020800000F06AFE01BD30B54C06640E28256C4395
:102090000019090601D5203000E07030002A03D174
:1020A00000218172838004E001218172C380190CB8
:1020B0000181002030BD70B57F257F240C4028268B
:1020C0007443041900200E0603D5203401266670DF
:1020D00001E070346070E260E3700D40257002D161
:1020E0006062E061206220616061A061A070E078C0
:1020F000002805D0022806D009D3032805D00BE01C
:102100008021890005E0002103E0C02100E080215A
:10211000C900284600F030FE2078C025AD01A17A24
:10212000002916D1A1886278002A06D000F094FE1A
:10213000207800F081FE202123E000F08EFEE1688F
:1021400089B2207800F09EFE207800F065FE29001C
:1021500028E000F050FE2289E188207800F0B6FEE9
:1021600020786178002910D100F056FE207800F028
:1021700063FE207800F048FE2900207800F019FE68
:102180000021207800F001FE0FE000F045FE2078ED
:1021900000F052FE207800F02FFE0021207800F0A1
:1021A000F4FD0021207800F004FE002070BD10B581
:1021B0004A06520E28235A438418080601D52034B3
:1021C00000E0703461782078A27A002A07D10029D3
:1021D00002D000F031FE10E000F01EFE1EE00029EB
:1021E00010D100F019FE207800F026FE207800F0D3
:1021F0000BFE0021207800F0DCFD0021207800F0AB
:10220000C4FD0FE000F008FE207800F015FE2078F5
:1022100000F0F2FD0021207800F0B7FD00212078C9
:1022200000F0C7FD002010BD38B500250095490617
:10223000490E282461434418703422616361A5610A
:102240006069E168814203D200910099451A00E07B
:10225000009065612078A17A002904D1009989B2A3
:1022600000F010FE04E0009A92B2617800F054FE93
:10227000C0218901207800F09CFD002032BDF8B516
:10228000002500957F267F240C4028277C430419D5
:1022900020340E40267022616361A5616069E168A7
:1022A000814203D200910099451A00E000906561D7
:1022B000A07A0028009A0AD192B2A188206900F081
:1022C0009BFE009989B2207800F0CEFD15E092B215
:1022D0006178207800F020FE207800F048FD40066C
:1022E00001D5218900E0E188009A92B2206900F0CE
:1022F00083FE6178207800F06DFE3021207800F0B8
:1023000044FD0020F2BD10B50A0606D54906490E67
:10231000282251434118203103E02822514341181B
:1023200070310878012200280AD12E4803682E4C0B
:102330001C402E4B63402E4C1C4304608A700AE004
:102340004B78002B8A7003D0102100F01EFD02E0B4
:10235000110300F02EFD002010BD000094020020AB
:1023600010B50A0606D54906490E282251434418DD
:10237000203403E0282251434418703420786178D7
:10238000002906D000F058FD3021207800F0FDFC37
:1023900006E000F041FDC0218901207800F009FD30
:1023A0000020A07010BD30B500220171D0B28300B2
:1023B0000C4CE3181C680F4D254028430C4C04437B
:1023C0001C60521C022AF1D3802008430A4908608D
:1023D00030BD0A490A68CB0B13430B6001218170A1
:1023E00070470000005C0040BFBF000010100000FC
:1023F000808000008F8F00004C5C0040585C0040E3
:10240000F8B504000320464D002201274B78092B24
:1024100023D801A6F65CB744B6E040D64010084089
:102420009448200000F000F977E08888002814D153
:10243000C888002811D188784606760EA07803282F
:102440000BD026716E60200000F0B9F9002E02D08A
:102450000220A07061E0A7705FE0200000F072F938
:102460005BE04B882B702B78022BF6DAA678022ED5
:1024700014D0032EF1D1002B07D10220A0702270BE
:1024800000212000FFF7CAF844E021788B4241D0B8
:102490002000FFF7C3F82978217004E0002B39D021
:1024A0002370A07019002000FFF7ADF832E0009211
:1024B000C8880128D1D1A078022807D00328CCD120
:1024C00001222100200000F064F926E001220AE048
:1024D0000092A278921E012ABFD80097A168002915
:1024E00000D0009002226946200000F052F914E06A
:1024F0004888012811D1A76007E0A078801E012834
:10250000ABD84888012808D1A2602000C022A25878
:1025100092689047200000F052F90020F2BD0000C0
:102520008002002070B504000E000025A07803286A
:1025300012D1B088C0B202280EDA2000C022A25800
:10254000926890470500F088002808D1002D06D138
:10255000200000F034F902E0200000F0F3F8280039
:1025600070BD38B504000D0000200090A988C9B2E4
:10257000687800282CD0012811D0032852D1A078E7
:1025800002282BD0032849D16888002816D10029B9
:1025900014D0802912D02000FFF7B5FE0EE0A078FD
:1025A00002281BD0032839D16888002806D10029C9
:1025B00004D0802902D02000FFF7D2FE290020009D
:1025C000C022A25892689047200000F0F8F829E055
:1025D000A078022802D0032808D01FE0002921D0CB
:1025E00080291FD02000FFF78EFE1BE001200A0685
:1025F00006D54906490E282251436118223103E0CD
:1026000028225143611872310978002900D00090C6
:1026100002226946200000F0BCF803E029002000F7
:1026200000F090F8002032BD70B582B005000E00B9
:1026300071882C00C034080A012804D065D303280F
:1026400028D00DD361E069462869C0B2A26812683B
:102650009047F18840290AD1694608220A800AE099
:1026600069462869C0B22268126A9047E0606946EC
:10267000098800290DD0F18800290AD06A461288FD
:102680008A4200D90A0069460A800100280000F049
:1026900080F873BDC8B205282FD801A2125C9744F8
:1026A0000412202E3C4A69462869C0B2A2685268CA
:1026B0009047DCE769462869C0B2A26892689047F3
:1026C000D5E769462869C0B2A268D2689047CEE7CC
:1026D00069462869C0B2A26812699047C7E769468F
:1026E0002869C0B2A26852699047C0E76946286964
:1026F000C0B2A26892699047B9E76A46C9B2286930
:10270000C0B223685B6A9847B1E73100280000F047
:1027100019F873BD027E0A70427E4A70827EC37EC3
:102720001B02D2184A80027F437F1B02D2188A8084
:10273000827FC37F1B02D218CA80C98841640121ED
:102740004170704780B50021FFF7DDFD01BD002815
:1027500000D1704770B504000023002501E06D1C16
:10276000641C2678002EFAD12D06EC0DA41C1480D2
:1027700012880A7003224A70022206E0D2B28C54F8
:10278000401C521CD2B28B54521C0478002CF5D140
:1027900070BD80B50264C2630223437000E080B55F
:1027A00013000A000021FFF76AFD002002BD80B57A
:1027B00013000A000021FFF737FD002002BD80B59D
:1027C0000421417000230022ECE780B5052141700F
:1027D00000230022EEE7FEE7F8B5040000260025FE
:1027E000276826721CE0380000F04AF83878202864
:1027F00001D0222812D127480069006A006880476A
:102800002448006901684A685306DB0F01D00122A1
:1028100022720978C900C069405C05430837761CFC
:10282000F0B2A1888842DED3E580F1BDF8B504009E
:1028300000260025276826721CE0380000F020F8EA
:102840003878202801D0222812D112480069006A65
:10285000406880470F48006901684A685306DB0FEB
:1028600001D0012222720978C900C069405C054389
:102870000837761CF0B2A1888842DED3E580F1BD2E
:102880000449C8600278203A032A01D840680861E8
:10289000704700004C02002080B50449486000F0F9
:1028A000D9FB002801D1FEF70BF902BD4C02002034
:1028B000F6B583B0694600220A701821484345499D
:1028C00049680C18606802902068019000271AE09F
:1028D0003100A06840198088FEF78CF9A168491979
:1028E0000881FEF78DF9A16849190A6806239A4301
:1028F0004000034013430B600298801C0290019833
:102900000C3001907F1CF8B2A18988425DD20298F8
:1029100005880C204543A06840190168CA06920F3B
:10292000032AE9D101220A43026001980078FEF7E8
:1029300044F90600A068401941896A4651804681E1
:102940000221254A128896420AD2026806239A4337
:102950000423134303600022028168460170CBE721
:102960001D4A5288B24202D202680623F1E7FEF7FE
:1029700049F90028ACD00398002808D031006846F7
:102980004088039A90470600A068401946813100AC
:10299000A06840198088FEF72DF90600FEF730F98F
:1029A000A16849190A6806239A434000034013436B
:1029B0000B600498002806D0300004998847A1686D
:1029C0004919088198E70E8196E76846007805B0B6
:1029D000F0BD00004C020020E000002010B51548BA
:1029E0000188491C018014490A88521C837892B2DC
:1029F000FA24A400A24205DB5B1C0022DBB2402BC0
:102A000000DB00230A80837010BD70B50B4A136889
:102A10000224A3431360074B1C880223002800D123
:102A20000EE00D880E88A51BADB2854201D30C8047
:102A30000BE00FE04C0200209E02002010E000E0BE
:102A4000106803431360022070BD106803431360D5
:102A5000002070BD106803431360012070BDFEE7C5
:102A6000F5B583B001240025684601810195002653
:102A7000039800680090002703E000980830009059
:102A80007F1CF8B20399898888422ED20098FFF7FC
:102A9000F7FE6348C0680078202805D0212803D0BD
:102AA000222801D0232808D15D48006901680978EF
:102AB0000229E2D1818901918668002002E0012586
:102AC0000C36401CC0B201998842D6DA0821715EEA
:102AD000002901D10024F3E704D5012DFADA0025FD
:102AE000ED43EDE7002DEAD5F4E7002C03D068466E
:102AF0006946098A01816846008905B0F0BDF3B5D1
:102B000083B0002001900024009003980768684675
:102B1000008AFF214140491C89B20291002623E02E
:102B20000820215EA088FEF768F8A1880902A27932
:102B30008918029A51436A46128A000250430818C3
:102B4000010AA171000CA0802000FEF75DF80128A9
:102B500002D10020009988470C346D1CEDB2019819
:102B60008542DDDB0837761CF0B2039989888842FC
:102B70001AD23800FFF784FE2948C0680078202860
:102B800005D0212803D0222801D023280AD12448A7
:102B90000069016809780229E4D18189019184687A
:102BA000204800900025D9E705B0F0BD70B50400BD
:102BB00000260125A0798006800E012810D1A07A78
:102BC000002811D11848016802229143016014497C
:102BD0000988A18101680A430260A572667206E055
:102BE000A6726672012070BD607A002809D12100AA
:102BF0000C31FA204000FFF708FF002801D1657270
:102C000002E0607A0028EDD014220A212000FFF7AC
:102C100027FF01002000FFF772FF002070BD0000B9
:102C20004C0200201104000810E000E010B5274914
:102C3000884209D18C0C01212000FFF790F8002177
:102C40002000FFF78CF810BD2149884208D10C0CF8
:102C500001212000FFF78DF800212000FFF789F8FF
:102C600010BD0288C1239B0113400A881A43CB89F7
:102C70001343CA881A430B8913434A891A438B8921
:102C8000134303808288134B13408A881A4382803F
:102C90000A8A02820288104B134049881943018036
:102CA000818B0E4A0A40828370470029018802D036
:102CB00040220A4301E00A4A0A40028070478288A3
:102CC000084B11E001737047007B704700300140F2
:102CD00000380040FFF00000FBFF0000FFF700009D
:102CE000BFFF0000FFEF0000134083808288114384
:102CF000818070470200002012890A4200D0012022
:102D00007047FEE70E490028086801D020221FE026
:102D1000202290430860704709490028086801D0C4
:102D2000402215E0402290430860704713400B603A
:102D30000A6810430860704702490A68024BF5E7C9
:102D4000006C0040046C0040FFFFFFCF08680422C5
:102D500002430A607047FEE74749086070474749E9
:102D60000860704733490140574801607047800050
:102D70003849085880B270478000364A10180268F7
:102D8000604B134019430160704710B58000314A11
:102D9000101803685C4A1A401023194202D014002C
:102DA000102262402023194202D0110020224A4002
:102DB00013E010B58000274A10180368304A1A4003
:102DC00080235B01194202D014001A0062405B00AC
:102DD000194202D011001A004A404C4911430160C7
:102DE00010BD80001B4908180168494A0A4049493A
:102DF000114301607047F4E7800016490818016824
:102E0000434A0A406F49F3E78000124908180168F5
:102E10003F4A0A406C49EBE780000E4908180168F8
:102E2000490405D501683A4A0A40664911430160E0
:102E300070470000F8FF000080000649081801688C
:102E4000490605D50168324A0A405F4911430160CD
:102E500070470000005C004049E01B4A126892B2D3
:102E6000C00010186D4A48E0174A126892B2C000BC
:102E70001018714A81527047405C0040445C004029
:102E80008FBF0000104A126892B2C0001018504A5A
:102E900080183F2908DB4A09C90600D1521E920258
:102EA00080210902114304E04A08C90700D5521CD9
:102EB00091020180704773E00349096889B2C0003C
:102EC0000818434972E00000505C004070B5C00033
:102ED0005A4B3E4C2568ADB22D18594E1940A95396
:102EE000216889B208184D491340435270BD374AD2
:102EF000126892B2C0001018514A504B0B408352D6
:102F0000704700008F890000BF8F000080800000A4
:102F10008F8F000080810000FCB5C00000902C481D
:102F2000454C484B002926D1196889B2009D4919A2
:102F300009190191C10B1F243F2A15DB56092242B2
:102F400000D1761EB6020E43019F3E801B689BB2E5
:102F5000009E9B1918183F2A1ADB5309224200D100
:102F60005B1E9A02114318E05608D70701D4B60237
:102F7000EAE7761CFBE7012910D1196889B2009DA8
:102F800049190A53196889B2009BC9180A52F3BD3E
:102F90005308D10700D55B1C99020180F3BD00BF27
:102FA0000A49096889B2C00008182349405A8005B7
:102FB000800D70470549096889B2C00008180449A6
:102FC000F4E7000080C00000C0800000505C0040BA
:102FD000066000408000104A10181B4A002903D1E7
:102FE00001680A40194904E0012904D101680A4036
:102FF000174911430160704710B5114BC918521C95
:10300000521007E00378447824021C430C80891C8A
:10301000801C521EF6D110BD005C004004600040D0
:10302000074BC918521C521004E00B880380891CFE
:10303000801C521EF9D1704702600040FEFF000064
:1030400000600040505C00408F8F0000C080000096
:1030500080C0000000B50E480068FA218900FDF725
:1030600090FC401E80214904884201D3022000BD0B
:1030700008494860084802681202120AC0231B0669
:10308000134303600020886007200860002000BD13
:10309000CC00002010E000E020ED00E0F0B585B0AD
:1030A0006846002101808F4E8F4802908F4F16E0B6
:1030B00038688F490140396002980078FFF7FBFEBD
:1030C0000299886102988069029909690818029931
:1030D00008610021B748874A126852689047786CA7
:1030E00069464880000400D4FAE06846408800073A
:1030F000000F58D168464088C006D9D5684639685F
:1031000001800088000512D53078FFF7D5FEB06148
:103110000246B188A848FFF783FF3868A7490140F5
:103120003960A4487349096889688847D7E76846C1
:1031300000880004D3D53868A04901403960307850
:10314000FFF7BAFEB0610246002A07D0B1883069A5
:10315000FFF766FFB06931690818306100219548B2
:10316000644A126812689047386D80B294494018DA
:10317000F1683F2907D34A09C90600D1521E9202BD
:10318000F90B114304E04A08C90700D5521C91020B
:10319000018038688B490140C020800148408A493D
:1031A000014339609BE78100791801916946019AD2
:1031B00012680A80282148437E490818039068460F
:1031C0000088000446D5019800687C4901400198B8
:1031D0000160039C70342078A17A002909D1FFF79F
:1031E0006BFE05001ED02A00A1882069FFF718FF9A
:1031F00018E0FFF7BCFD4004207806D5FFF7CFFEAE
:1032000005000BD02A00E18805E0FFF7D3FE05009A
:1032100004D02A0021892069FFF702FF00212078CD
:10322000FFF7D8FEA0694019A06121694A192261FF
:103230006369002B02D0E068854206D221785D48A0
:103240002C4A12681268904704E09BB221785948D2
:10325000FEF7EAFF68460088000640D5039C20344C
:103260000198006822490140019801602078A17A04
:1032700000290AD1FFF71FFEA0610246002A1FD0D5
:10328000A1882069FFF7B8FE1AE0FFF770FD40063D
:10329000207807D5FFF783FEA0610246002A0BD0F5
:1032A000E18806E0FFF786FEA0610246002A03D00F
:1032B00021892069FFF7A0FE01212078FFF78AFE0F
:1032C0002078FFF7F8FDA06121690A18226163697F
:1032D0002178002B374800D1FDE6FEF7D0FFFEE64F
:1032E00005B0F0BD8801002038010020005C0040DE
:1032F0000F8F0000F8000020F8B56846002101801B
:10330000324C21680180324D008829680140080450
:1033100001D5FFF7C3FE2F4F264E68460088296867
:103320000140480509D52C482060300039680969FA
:10333000884700213000FFF736F868460088296882
:103340000140880401D52548206068460088296826
:103350000140C80408D522482060300039688969D6
:103360008847002000F05AF8684600882968014024
:10337000080507D51B48206030003968496988472F
:1033800000F036F86846008829680140880505D5B0
:103390001548206030003968C96888476846008849
:1033A00029680140C80504D510482060072000F0B6
:1033B00035F8F1BD18010020300100208F0F00000A
:1033C000066000408FBF000080800000445C004029
:1033D00094020020F8000020FFFB0000FFDF000047
:1033E000FFEF0000FFF70000FFFD0000FFFE000000
:1033F0002E48016808220A4392B202600168042242
:103400000A4392B20260704728480168284A0A407D
:103410000260BF210902016070470000F8B5002179
:103420000091244C072800D02070042506261F4850
:1034300005222378052B37D801A7FF5CBF4400BFC6
:103440000616222C3C4E0098002802D1FFF7DCFF24
:103450002AE02270F1BDFFF7D7FF25700120009010
:10346000F1BD0220607003202070F1BD6078401E25
:1034700060706078002818D12570F1BD01681023B4
:103480000B439BB2036022700A206070F1BD62782A
:10349000521E62706278002A07D10268064B134000
:1034A000036026700091F1BD2670F1BD405C0040C4
:1034B000FBFF000098020020EFFF0000000000006A
:1034C00004000000010000000100000040000000B6
:1034D00002000000020000000002000004000000E2
:1034E000000001000200000010000000E5050008D7
:1034F00030000000A30500080100000025050008B9
:103500002300000000000000250000009B040008CC
:1035100029000000DB040008020000000000000099
:103520002200000000000000260000000000000053
:103530002A0000000000000004000000E906000866
:1035400024000000A5060008080000003D07000850
:103550008000000043120008B0000000AB07000824
:10356000A1000000AB070008A2000000AB070008A4
:10357000A4000000AB070008A8000000AB0700088B
:103580004000000041120008C100000815010008B9
:10359000690100080001000100010000780200201C
:1035A000600200202802002003000000943500087B
:1035B0008037000880008000E83400088835000863
:1035C000200000009C35000882B01E4801680122DE
:1035D0000A43026041681C4A0A40426001681B4A73
:1035E0000A40026001681A4A0A4002604168194AAA
:1035F0000A404260C16A0F229143C162016B164AC0
:103600000A400263416B154A0A404263002181600F
:1036100000910091124911220A604168416041689D
:103620004160416B802252020A434263416B89032D
:10363000FCD5416803229143416041680A434260DE
:1036400002B07047001002400CB8FF80FFFFF6FE8A
:10365000FFFFFBFFFF7FC0FFACFEFFFFFEFFFEFF93
:10366000002002407047FEE77047704780B5FDF7C5
:103670000BFEFFF7B3F901BD80B5FFF73DFE01BDBD
:1036800080B50120FEF7EDFB002806D00A48012195
:1036900001600120FEF7EEFB01BDFDF731FE0220C7
:1036A000FDF726FE0220FEF7E5FB012231216846E8
:1036B000FEF719F901BD00008C02002038B4012189
:1036C0000268001D002A0FD00368C3184468083040
:1036D0000C4202D04D466D1E64191D6825601B1DED
:1036E000241D121FECD0F8E732BC704710B5074913
:1036F00079441831064C7C44163404E0081D0A68ED
:10370000891888470100A142F8D110BD08000000C7
:10371000280000000BD5FFFFA4010000FC000020E2
:103720000000000099FFFFFFFC000000B000000057
:10373000000000200000000000F00BF8002801D07D
:10374000FFF7D4FF0020C046C046FDF7EAFA00F0BC
:1037500002F80120704780B500F002F801BDFEE7D5
:103760000746384600F002F8FBE7FEE780B5C046A2
:10377000C046024A11001820ABBEFBE7260002003B
:103780000000A0FFA0002000000060FF20FF6000FC
:10379000000000000148804701480047C935000883
:1037A000A5370008C046C046C046C046FFF7C4FF64
:1037B000FEE7FEE7FEE7FEE7FEE7FEE7FEE7FEE7E1
:1037C000FEE7FEE7FEE7FEE7FEE7FEE7FEE7FEE7D1
:1037D000FEE7FEE7FEE7FEE7FEE7FEE7791B0008EF
:1037E000A51B0008BD1B0008000000000000000031
:1037F000000000000000000000000000791C00082C
:103800000000000073140008D914000827140008F1
:10381000F515000881150008DD150008C71500081A
:103820000000000000000000000000000000000098
:1038300000000000C035000801000000000000008A
:10384000000000004D1F0008551F0008691F0008F8
:103850005D1F00087B1F0008851F0008911F0008DE
:103860001A0300000000000000000000000000003B
:10387000000000000000000000000000EB0C000849
:10388000ED0C0008EF0C0008F10C0008F30C000828
:103890000000000000000000000000000000000028
:1038A0000102030406070809006CDC020008004856
:1038B0000008004800080048000800480A00FF1FF0
:1038C00004000000E83400088835000800000048C3
:0838D000001000002800002098
:04000005080037A513
:00000001FF
