:020000040800F2
:100000000040002045030008950300089503000800
:1000100000000000000000000000000000000000E0
:100020000000000000000000000000009503000830
:10003000000000000000000095030008D90200083D
:100040009503000895030008950300089503000830
:100050009503000895030008950300089503000820
:100060009503000895030008950300089503000810
:100070009503000895030008950300089503000800
:1000800095030008950300089503000895030008F0
:1000900095030008950300089503000895030008E0
:1000A00095030008950300089503000895030008D0
:1000B00095030008950300089503000895030008C0
:1000C00010B5064C2378002B07D1054B002B02D02E
:1000D000044800E000BF0123237010BD300400205D
:1000E00000000000B015000808B5084B002B03D035
:1000F0000748084900E000BF07480368002B00D10B
:1001000008BD064B002BFBD09847F9E70000000024
:10011000B015000834040020300400200000000066
:10012000002243088B4274D303098B425FD3030A36
:100130008B4244D3030B8B4228D3030C8B420DD349
:10014000FF22090212BA030C8B4202D312120902D7
:1001500065D0030B8B4219D300E0090AC30B8B4215
:1001600001D3CB03C01A5241830B8B4201D38B03C3
:10017000C01A5241430B8B4201D34B03C01A524168
:10018000030B8B4201D30B03C01A5241C30A8B42AB
:1001900001D3CB02C01A5241830A8B4201D38B0296
:1001A000C01A5241430A8B4201D34B02C01A52413A
:1001B000030A8B4201D30B02C01A5241CDD2C309AC
:1001C0008B4201D3CB01C01A524183098B4201D328
:1001D0008B01C01A524143098B4201D34B01C01A13
:1001E000524103098B4201D30B01C01A5241C3088B
:1001F0008B4201D3CB00C01A524183088B4201D3FA
:100200008B00C01A524143088B4201D34B00C01AE5
:100210005241411A00D20146524110467047FFE751
:1002200001B5002000F00CF802BDC0460029F7D04F
:1002300003B5FFF775FF0EBC4243891A1847C04645
:100240007047C04670B598B000F0A6F820230B9315
:10025000C0230124002502265B020BA815931294EB
:1002600014961794169500F04DFB0723211C02A845
:10027000029303960495059500F0C6FE144B06A85C
:100280009A6922439A619A6922400092009A8022D8
:1002900059691203114359615B69291C1A40019283
:1002A0001422019B01F0A6F8C0239B0006930323B0
:1002B000084806A90794099300F096F9802105489B
:1002C000890000F00DFB642000F0B2F8F6E7C046AC
:1002D000001002400008004808B500F093F800F054
:1002E00075F908BD0121114B1A680A431A60586854
:1002F0000F4A02405A6018680E4A02401A60186895
:100300000D4A02401A6058680C4A02400F205A6099
:10031000DA6A8243DA62186B094A02401A635A6B3E
:100320008A435A6300229A607047C0460010024018
:100330000CB8FF08FFFFF6FEFFFFFBFFFFFFC0FF4B
:100340002CFEFCFF0D488546002103E00C4B5B585A
:10035000435004310B480C4B42189A42F6D30B4AD7
:1003600002E0002313600432094B9A42F9D3FFF7ED
:10037000B9FF00F0DDFFFFF765FFFEE7004000205A
:100380000C1600080000002030040020300400207B
:1003900050040020FEE7000080B500AF074B074A7D
:1003A000126810210A431A60032000F00FF800F0D1
:1003B00007F800231800BD4680BDC046002002405B
:1003C00080B500AFC046BD4680BDC04680B582B096
:1003D00000AF786000F090FF0200FA23990010004F
:1003E000FFF79EFE0300180000F0E2F87968012391
:1003F0005B420022180000F0C5F800231800BD463B
:1004000002B080BD80B500AF034B1B685A1C024B85
:100410001A60C046BD4680BD4C04002080B500AFC8
:10042000024B1B681800BD4680BDC0464C0400202E
:1004300080B584B000AF78600023FB60FFF7EEFF6B
:100440000300FB60C046FFF7E9FF0200FB68D21A19
:100450007B689A42F7D3C046BD4604B080BDC04613
:10046000B0B582B000AF02003960FB1D1A70FB1DF1
:100470001B787F2B32D92F4CFB1D1B781A000F23C2
:100480001340083B99082B4AFB1D1B7818000F23CB
:100490000340083B9B0806339B00D31804331B68BA
:1004A000FA1D1278100003220240D200FF20904073
:1004B0000200D2431A403B689B01FF201840FB1DFD
:1004C0001B781D0003232B40DB00984003001A43D8
:1004D0008B1D9B00E31804331A6027E0164CFB1DAC
:1004E0001B785BB29B081449FA1D127852B292082D
:1004F000C03292005258F91D0978080003210140CA
:10050000C900FF2088400100C94311403A689201A8
:10051000FF201040FA1D1278150003222A40D20055
:10052000904002000A43C0339B001A51C046BD46AA
:1005300002B0B0BD00ED00E000E100E080B582B0A7
:1005400000AF78607B68013B0C4A934201D90123DC
:1005500010E00B4B7A68013A5A6001235B42032199
:100560001800FFF77DFF064B00229A60044B07221C
:100570001A6000231800BD4602B080BDFFFFFF00D7
:1005800010E000E080B584B000AFB9607A600F235E
:10059000FB18021C1A70BA680F23FB181B785BB299
:1005A00011001800FFF75CFFC046BD4604B080BDD7
:1005B00080B582B000AF78607B681800FFF7BEFF9F
:1005C00003001800BD4602B080BDC04680B500AF34
:1005D00000F004F8C046BD4680BDC04680B500AFFF
:1005E000C046BD4680BDC04680B586B000AF7860CD
:1005F000396000237B610023FB6000233B6155E1F0
:100600003B681B6801217A6991400A001340FB6036
:10061000FB68002B00D146E13B685B68022B03D0EE
:100620003B685B68122B23D17B69DA087B68083250
:100630009200D3583B617B69072213409B000F2235
:100640009A401300DA433B6913403B613B681A69E7
:100650007B6907210B409B009A4013003A691343C2
:100660003B617B69DA087B68083292003969D150B6
:100670007B681B683B617B695B0003229A40130027
:10068000DA433B6913403B613B685B6803221A40D5
:100690007B695B009A4013003A6913433B617B68B6
:1006A0003A691A603B685B68012B0BD03B685B685A
:1006B000022B07D03B685B68112B03D03B685B685B
:1006C000122B30D17B689B683B617B695B00032206
:1006D0009A401300DA433B6913403B613B68DA6898
:1006E0007B695B009A4013003A6913433B617B6866
:1006F0003A699A607B685B683B6101227B699A403A
:100700001300DA433B6913403B613B685B681B099C
:1007100001221A407B699A4013003A6913433B61F6
:100720007B683A695A607B68DB683B617B695B0088
:1007300003229A401300DA433B6913403B613B6854
:100740009A687B695B009A4013003A6913433B61E6
:100750007B683A69DA603B685A6880235B0513401E
:1007600000D1A0E0574B574A926901210A439A6190
:10077000544B9B6901221340BB60BB68524A7B69A2
:100780009B0802339B009B583B617B69032213400B
:100790009B000F229A401300DA433B6913403B61F0
:1007A0007A689023DB059A4219D07B68474A9342C6
:1007B00013D07B68464A93420DD07B68454A9342EA
:1007C00007D07B68444A934201D1042308E0052303
:1007D00006E0032304E0022302E0012300E00023FB
:1007E0007A6903210A40920093403A6913433B61BE
:1007F00035497B699B0802339B003A695A50374B55
:100800001B683B61FB68DA433B6913403B613B6813
:100810005A6880235B02134003D03A69FB68134394
:100820003B612E4B3A691A602C4B5B683B61FB685D
:10083000DA433B6913403B613B685A6880239B0263
:10084000134003D03A69FB6813433B61234B3A6979
:100850005A60224B9B683B61FB68DA433B6913405B
:100860003B613B685A6880235B03134003D03A69BD
:10087000FB6813433B61194B3A699A60174BDB687D
:100880003B61FB68DA433B6913403B613B685A6854
:1008900080239B03134003D03A69FB6813433B61F9
:1008A0000E4B3A69DA607B6901337B613B681A68F9
:1008B0007B69DA40131E00D0A2E6C046BD4606B0F2
:1008C00080BDC04600100240000001400004004806
:1008D00000080048000C00480010004800040140D7
:1008E00080B582B000AF78600A00BB1C1A807B68BC
:1008F0005A69BB1C1B885A407B685A61C046BD467A
:1009000002B080BD80B584B000AF78600023FB608A
:100910007B681B680122134000D1AFE0C34B5B68CA
:100920000C221340042B0ED0C04B5B680C221340EA
:10093000082B17D1BD4B5A68C0235B021A40802395
:100940005B029A420ED1B94B1A6880239B02134076
:1009500000D192E07B685B68002B00D08DE0012322
:1009600000F048FBB14BB14A1268B1490A401A6025
:10097000AE4BAE4A1268AF490A401A60FFF74EFD0F
:100980000300FB6009E0FFF749FD0200FB68D31A92
:10099000642B02D9032300F02DFBA44B1A6880239B
:1009A0009B021340EFD17B685B68012B07D19F4B03
:1009B0009E4A1268802149020A431A602FE07B6830
:1009C0005B68002B0CD1994B984A126898490A40F1
:1009D0001A60964B954A126896490A401A601EE0C2
:1009E0007B685B68052B0ED1904B904A1268802182
:1009F000C9020A431A608D4B8C4A12688021490251
:100A00000A431A600BE0894B884A126888490A40F9
:100A10001A60864B854A126886490A401A607B68CC
:100A20005B68002B14D0FFF7F9FC0300FB6008E0C3
:100A3000FFF7F4FC0200FB68D31A642B01D90323EF
:100A4000D8E27A4B1A6880239B021340F0D015E05D
:100A5000FFF7E4FC0300FB6008E0FFF7DFFC0200A7
:100A6000FB68D31A642B01D90323C3E26F4B1A68C6
:100A700080239B021340F0D100E0C0467B681B68D6
:100A80000222134000D16CE0684B5B680C221340DB
:100A90000ED0664B5B680C221340082B1FD1634BB2
:100AA0005A68C0235B021A4080231B029A4216D167
:100AB0005E4B1B680222134005D07B68DB68012B6C
:100AC00001D0012396E2594A584B1B68F8218B4309
:100AD00019007B681B69DB000B43136041E07B68F6
:100AE000DB68002B24D0514B504A126801210A4385
:100AF0001A60FFF793FC0300FB6008E0FFF78EFC31
:100B00000200FB68D31A022B01D9032372E2474B80
:100B10001B6802221340F1D0444A444B1B68F82161
:100B20008B4319007B681B69DB000B43136018E0E3
:100B30003E4B3E4A126801218A431A60FFF76EFC61
:100B40000300FB6008E0FFF769FC0200FB68D31AB2
:100B5000022B01D903234DE2344B1B6802221340C0
:100B6000F1D17B681B680822134036D07B681B6A72
:100B7000002B19D02D4B2D4A526A01210A435A628B
:100B8000FFF74CFC0300FB6008E0FFF747FC0200A6
:100B9000FB68D31A022B01D903232BE2234B5B6A98
:100BA00002221340F1D018E0204B204A526A012162
:100BB0008A435A62FFF732FC0300FB6008E0FFF74C
:100BC0002DFC0200FB68D31A022B01D9032311E28A
:100BD000164B5B6A02221340F1D17B681B6804222A
:100BE000134000D1B6E0114B104AD269802149056B
:100BF0000A43DA610D4BDA6980235B051340BB6061
:100C0000BB680D4B0C4A1268802149000A431A60E8
:100C1000FFF704FC0300FB6010E0FFF7FFFB02009E
:100C2000FB68D31A642B09D90323E3E100100240C7
:100C3000FFFFFEFFFFFFFBFF00700040BD4B1A6887
:100C400080235B001340E8D0BB4BBB4A126A0121F2
:100C50008A431A62B84BB84A126A04218A431A625C
:100C6000FFF7DCFB0300FB6009E0FFF7D7FB0200A6
:100C7000FB68D31AB14A934201D90323BAE1AE4BC0
:100C80001B6A02221340F0D17B689B68012B06D1BE
:100C9000A94BA94A126A01210A431A622DE07B6816
:100CA0009B68002B0CD1A44BA34A126A01218A43F2
:100CB0001A62A14BA04A126A04218A431A621CE0FC
:100CC0007B689B68052B0CD19B4B9B4A126A0421C5
:100CD0000A431A62984B984A126A01210A431A621F
:100CE0000BE0954B944A126A01218A431A62924B97
:100CF000914A126A04218A431A627B689B68002B1E
:100D000014D0FFF78BFB0300FB6009E0FFF786FBC5
:100D10000200FB68D31A894A934201D9032369E18F
:100D2000854B1B6A02221340F0D013E0FFF776FBDD
:100D30000300FB6009E0FFF771FB0200FB68D31AB8
:100D40007E4A934201D9032354E17B4B1B6A022262
:100D50001340F0D17B681B681022134063D07B687E
:100D60005B69012B2AD1744B734A526B04210A43ED
:100D70005A63714B704A526B01210A435A63FFF761
:100D80004DFB0300FB6008E0FFF748FB0200FB6837
:100D9000D31A022B01D903232CE1674B5B6B022290
:100DA0001340F1D0644A644B5B6BF8218B4319000C
:100DB0007B689B69DB000B43536334E07B685B69B2
:100DC000053311D15C4B5C4A526B04218A435A6350
:100DD000594A594B5B6BF8218B4319007B689B691F
:100DE000DB000B4353631EE0534B534A526B042109
:100DF0000A435A63504B504A526B01218A435A634B
:100E0000FFF70CFB0300FB6008E0FFF707FB0200A5
:100E1000FB68D31A022B01D90323EBE0464B5B6B33
:100E200002221340F1D17B681B68202213405CD062
:100E3000414B5B680C2213400C2B0ED03E4B5B6881
:100E40000C221340082B14D13B4B5A68C0235B0281
:100E50001A40C0235B029A420BD1374B5A6B802356
:100E60005B02134040D07B68DB69012B3CD001233F
:100E7000C0E07B68DB69002B1BD02F4B2E4A526BE6
:100E8000802149020A435A63FFF7C8FA0300FB6056
:100E900008E0FFF7C3FA0200FB68D31A022B01D95E
:100EA0000323A7E0244B5A6B80235B021340F0D04E
:100EB0001BE0214B204A526B21490A405A63FFF73D
:100EC000ADFA0300FB6008E0FFF7A8FA0200FB6838
:100ED000D31A022B01D903238CE0174B5A6B8023C2
:100EE0005B021340F0D100E0C0467B685B6A002BD8
:100EF00000D17EE0104B5B680C221340082B00D120
:100F000075E07B685B6A022B56D10B4B0A4A12686C
:100F10000C490A401A60FFF781FA0300FB6013E0F6
:100F2000FFF77CFA0200FB68D31A022B0CD90323CB
:100F300060E0C046007000400010024088130000CE
:100F4000FFFFFEFFFFFFFFFE2C4B1A6880239B0470
:100F50001340E5D1294A294BDB6A0F218B43190045
:100F60007B681B6B0B43D362244A244B5B68244988
:100F700019407B68D86A7B689B6A03430B435360C4
:100F80001E4B1E4A1268802149040A431A60FFF76B
:100F900045FA0300FB6008E0FFF740FA0200FB6837
:100FA000D31A022B01D9032324E0144B1A6880239F
:100FB0009B041340F0D01CE0104B104A12681149FA
:100FC0000A401A60FFF72AFA0300FB6008E0FFF707
:100FD00025FA0200FB68D31A022B01D9032309E08A
:100FE000064B1A6880239B041340F0D101E00123D3
:100FF00000E000231800BD4604B080BD0010024090
:10100000FF7FC2FFFFFFFFFE80B584B000AF7860B6
:1010100039600023FB60734B1B6801221A403B6858
:101020009A4211D26F4B6F4A126801218A43110014
:101030003A680A431A606B4B1B6801221A403B68EE
:101040009A4201D00123C9E07B681B680222134049
:1010500009D0654A644B5B68F0218B4319007B68BB
:101060009B680B4353607B681B680122134000D1CF
:1010700089E07B685B68012B07D15B4B1A68802392
:101080009B02134020D10123A8E07B685B68022B00
:1010900007D1554B1A6880239B04134014D10123B8
:1010A0009CE07B685B68032B07D14F4B5A6B802316
:1010B0005B02134008D1012390E04B4B1B680222D6
:1010C000134001D1012389E0474A474B5B68032164
:1010D0008B4319007B685B680B435360FFF79EF9F5
:1010E0000300FB607B685B68012B11D109E0FFF70F
:1010F00095F90200FB68D31A3C4A934201D90323B5
:101100006CE0394B5B680C221340042BEFD13AE0C2
:101110007B685B68022B11D109E0FFF77FF90200C1
:10112000FB68D31A314A934201D9032356E02E4B70
:101130005B680C221340082BEFD124E07B685B68CE
:10114000032B1BD109E0FFF769F90200FB68D31AF2
:10115000264A934201D9032340E0234B5B680C22CB
:1011600013400C2BEFD10EE0FFF758F90200FB689B
:10117000D31A1E4A934201D903232FE01A4B5B680E
:101180000C221340F0D1174B1B6801221A403B6818
:101190009A4211D9134B134A126801218A43110054
:1011A0003A680A431A600F4B1B6801221A403B68D9
:1011B0009A4201D0012311E07B681B68042213408E
:1011C00008D0094A084B5B68094919407B68DB680D
:1011D0000B4353600320FFF7F9F800231800BD46C6
:1011E00004B080BD002002400010024088130000BF
:1011F000FFF8FFFF80B58EB000AF1423FA18394B0B
:101200001000190010231A0000F0B6F83A1D364BF2
:101210001000190010231A0000F0AEF80023FB6242
:101220000023BB6200237B6300237B6200233B63BC
:101230002E4B5B68FB62FB6A0C221340082B06D026
:101240000C2B43D0042B44D1294B3B6344E0FB6A75
:101250009B0C0F2213401422BA18D35C7B62234BE1
:10126000DB6A0F2213403A1DD35CBB62FA6AC023CB
:101270005B021A4080235B029A4209D1B96A1C487A
:10128000FEF74EFF03001A007B6A53437B631AE0AC
:10129000FA6AC0235B021A40C0235B029A4209D15A
:1012A000B96A1448FEF73CFF03001A007B6A5343F7
:1012B0007B6308E0B96A0E48FEF732FF03001A00AC
:1012C0007B6A53437B637B6B3B6305E0094B3B636A
:1012D00002E0074B3B63C0463B6B1800BD460EB0B7
:1012E00080BDC046D8150008E8150008001002406F
:1012F00000127A00006CDC0280B500AFFFF77AFFC5
:101300000100084B5B68F02213401B09064AD35CBE
:101310000A00DA40054B1A60044B1B681800BD46F2
:1013200080BDC04600100240C81500080000002023
:1013300070B50D4E0D4D0024AD1BAD1005D0A300B2
:10134000F35801349847A542F9D100F031F9084E1D
:10135000084D0024AD1BAD1005D0A300F358013497
:101360009847A542F9D170BD001600080016000884
:10137000001600080816000870B50F2A32D9041CA0
:101380000C430B1CA40731D1151C041C103D2D0966
:1013900001352D0149191E6826605E6866609E68E9
:1013A000A660DE681033E66010349942F3D10F2353
:1013B00045191340032B1BD91C1F0023A40801341B
:1013C000A400CE58EE500433A342FAD1ED18C91848
:1013D00003231A4005D00023CC5CEC540133934224
:1013E000FAD170BD051C002AF5D1FAE7051CF2E719
:1013F0001A1CF8E770B583073FD0541E002A3BD073
:10140000CEB2031C032503E0621E002C34D0141C52
:1014100001335A1E16702B42F6D1032C24D9FF2516
:101420000D402A0215432A0415430F2C11D9261CFE
:10143000103E3609013636011A1C9B19156055609D
:101440009560D56010329342F8D10F221440032CDE
:101450000AD9261FB6080136B6001A1C9B1920C2ED
:101460009342FCD103221440002C05D0C9B21C19B0
:1014700019700133A342FBD170BD141C031CCCE7CF
:1014800008B5034B002B02D0024800F005F808BD58
:1014900000000000A914000808B5011C002200206B
:1014A000002300F01BF808BD38B5094B094CE41ABD
:1014B000A41009D0084AA518AD00ED182B68013C0E
:1014C0009847043D002CF9D100F078F838BDC046AB
:1014D000081600080C160008FFFFFF3FF8B5444649
:1014E0005F4656464D469B462F4BF0B41C68A423DE
:1014F0005B00051CE0580E1C904600284BD043684A
:101500001F2B0DDC5C1C002D21D102339B0044609D
:101510001E5000203CBC90469946A246AB46F8BD02
:10152000224B002B3CD0C820400000E000BF002828
:1015300036D0A42200235200A15843600160A0507D
:1015400040328350043283500124002DDDD09A00B4
:1015500091468144424688214F467A50C422520027
:101560009046804442468739994012688A460A4329
:101570009446424661461160842249465F465200C5
:101580008F50022DC1D1021C55468D32FF32116899
:101590000D431560B9E7201C4D30FF30E050AEE739
:1015A00001204042B6E7C046FC15000800000000DC
:1015B000F8B5C046F8BC08BC9E467047F8B5C046B2
:0815C000F8BC08BC9E46704710
:1015C80000000000010203040102030406070809E1
:1015D80002030405060708090A0B0C0D0E0F10106C
:1015E8000102030405060708090A0B0C0D0E0F106B
:0815F800430000000800002080
:0816000081140008E900000854
:04160800C100000815
:10160C0000127A000000000000000000F40200202C
:10161C005C030020C4030020000000000000000058
:10162C0000000000000000000000000000000000AE
:10163C00000000000000000000000000F815000889
:10164C00000000000000000000000000000000008E
:10165C00000000000000000000000000000000007E
:10166C00000000000000000000000000000000006E
:10167C00000000000000000000000000000000005E
:10168C00000000000000000000000000000000004E
:10169C00000000000000000000000000000000003E
:1016AC00000000000000000000000000000000002E
:1016BC0001000000000000000E33CDAB34126DE6CB
:1016CC00ECDE05000B000000000000000000000034
:1016DC0000000000000000000000000000000000FE
:1016EC0000000000000000000000000000000000EE
:1016FC0000000000000000000000000000000000DE
:10170C0000000000000000000000000000000000CD
:0400000508000345A7
:00000001FF
